:400000000008002011000000390500003905000008B501F03BFC00F097FAC04610B5134C12232360182001F0ADFB80229200104B1A60104B104A1A60FE2109020F4A1160C6
:400040000F4A1A6000220F490A600F49196004210E4B19603E310E4B196002390D4B196001310D4B1960226010BDC04630001040080301400000014042FF0080000301404A
:4000800040FF00800403014041FF0080280003400C010140080101400001014008B572B6EE22174B1A60EE221202164B1A600E22154B1A600132154B1A60043A144B1A6036
:4000C000144A154B1A60EC23144A13603621144A1160144A1360E93B134A1360D8210901124A1160124A13600122124B1A600432114B1A60FFF792FF00F08AFA08BDC04692
:400100000001024000030240000004401800044000010440A405800008010440000204400802044018020440000304400803044018030440000404401804044010B5064C36
:400140002378002B07D1054B002B02D0044800E000BF0123237010BD0801002000000000481C000008B5084B002B03D00748084900E000BF07480368002B00D108BD064B7F
:40018000002BFBD09847F9E700000000481C00000C010020880000200000000008B562B600F07CF800F052FA00F094FC00F05AFC0028FBD100F072FA002000F083FB002810
:4001C00002D01122344B1A70012000F07BFB002802D01222304B1A70022000F073FB002802D013222C4B1A70032000F06BFB002802D01422284B1A70042000F063FB002847
:4002000002D01522244B1A70052000F05BFB002802D01622204B1A70062000F053FB002802D017221C4B1A70072000F04BFB002802D01822184B1A70082000F043FB0028A6
:4002400002D01922144B1A70092000F03BFB002802D01A22104B1A700A2000F033FB002802D01B220C4B1A700B2000F02BFB002802D01C22084B1A70074B1B78102B07D968
:40028000054A537859424B41DBB253705378137000F020FC8AE7C0462401002008B5C046012001F07BF9002001F06CF9012001F055F900F0ADF800F093F800F0AFF800F0E1
:4002C000D5F8902000F080F82820172100F058F80E20092100F054F80120622100F050F80F20642100F04CF81F200F2100F048F803200F2100F044F808BDC04638B5051C0A
:40030000002415E06BB2002B03DA012001F026F902E0002001F022F9C046012001F032F9C046002001F02EF96D00EDB20134E4B2072CE7D938BDC04638B5012001F00EF9F4
:40034000C0460025002413E001F014F9002804D06D0001231D43EDB201E06D00EDB2012001F010F9C046002001F00CF90134E4B2072CE9D9C046002001F0F0F8281C38BD95
:4003800038B5051C0C1C002001F008F9281CFFF7B5FFC046201CFFF7B1FF012001F0FEF838BDC04610B5041C002001F0F7F840202043FFF7A3FFC046FFF7BEFF041C0120E2
:4003C00001F0ECF8201C10BD10B5041C002001F0E5F8201CFFF792FF012001F0DFF810BD10B5002001F0DAF80620FFF787FF002405E0064B185DFFF781FF0134E4B2032C4A
:40040000F7D9012001F0CAF810BDC0464C1C000008B500200021FFF7B3FF08BD10B5012407E0114B1B191979201CFFF7A9FF0134E4B2042CF5D9072407E00B4B1B191979AE
:40044000201CFFF79DFF0134E4B2222CF5D9242407E0054B1B191979201CFFF791FF0134E4B2312CF5D910BD4C1C000070B5A020FFF7AAFF02200121FFF782FF0220FFF73E
:4004800091FFC307FAD42220FFF78CFFC30600D5FEE724201321FFF773FF26203B21FFF76FFF0F200021FFF76BFF02200221FFF767FF0220FFF776FF8307FAD42520FFF777
:4004C00071FF072606400007C50F0F20A021FFF757FF02200221FFF753FF0220FFF762FF8307FAD42520FFF75DFF072101400007C40F032E02D9321FD2B202E00422921B34
:40050000D2B2032902D90B1FDBB202E004235B1ADBB29A4205D3082131432520FFF730FF04E0082319432520FFF72AFF012D02D1012C00D1FEE770BD08B501F047FB036878
:400540000C2B00D1FEE7FEE770B50F4E0F4D13E029686B68AC68002202E001C901C30432A242FAD1E868002202E0002102C304328242FAD11035013E002EE9D101F02CFB66
:40058000FFF70CFEFEE7C046010000000420000008B500230AE0032B03D89A000949505800E009489900094A885001331F2BF2D9FFF774FD0022064B1A6080229205054BA9
:4005C0001A6008BD0000000039050000000000208000002008ED00E00B4B1B68002803D080221206134301E05B005B08064A1360064B1B68002802D02022134301E020221A
:400600009343024A13607047002002402800034008B51022024B1A600120FFF7DDFF08BDC0020B4008B5084B1B78002B06D100F00DF900F059F90122034B1A7000F052F814
:4006400000F08CFB08BDC0462801002038B5FFF7E9FF051E02D100F0BBFA051C002D02D100F038FA051C002D12D101F022F9041C07E001F0F3F8201C01F01FF901F019F9DE
:40068000041C00F0EFF90028F3D1201C01F015F900F034F900F086F9281C38BD70B50F4E0024002515E06B0902339B000C4AD3185A681F232B40DA40131CDB0707D5301C4F
:4006C00000F048F8041C281C311C00F093F81C3601350B2DE7D9201C70BDC046901C00006401002070B500230BE01348191D890000220A509A1C9200821801214942516075
:400700000133002BF1D00D4C0C2310E06668227E094B5B1900211975012A06D12069002803D0F179E28A01F086FA1C342B1C5D1E002BEBD170BDC04664010020901C000012
:400740000B884A889B1A0022CA8002799A4200DACB807047F0B583B0071C84684568037E01930026002300930BE0281C211C019A00F02EF90090281C211CFFF7E1FF0A34F8
:400780000136FB8AB342F0D8009803B0F0BDC046F0B5CA8A8D684F680B69012125E00C1C044003D17E88BA79B21802E07A88BE79921BEE88B24201D3002200E00A1CA2422D
:4007C00002D01E78013E1E70A24202D01C78002C07D188431043002A01D1FA7900E001221A7049000A3501336246541EA446002AD5D1F0BD38B5041C0A7E134B1B181D7D5F
:40080000012A04D1281CFFF7C3FF051C02E0002000F038FF0C4B1B191D7563091F2214401E3AA240141C002D06D1074904339B005A58A2435A5005E0034A04339B0099588E
:400840000C439C5038BDC0466401002038B5194C201C00219A22520001F0EDF9164B238098235B006380293BFF3B238402221A33E25402320133E254201C24300F495C312D
:400880008C3201F0CFF90E490C1C0C340C230CE0A268E38A04E00B78537201310A32031C581E002BF7D11C342B1C5D1E002BEFD138BDC04664010020BCBAFFFF841D0000BC
:4008C000841C00000B280BD81F220240012393401A1C430904339B0002495858104000E000207047640100200023024A9380024A13607047640100205C0100200C230BE0D9
:40090000CB005B1A9B00064AD318DB8A00E0131C5A1E002BFBD10B1C591E002BF0D17047901C0000C9B2062902D08318002119715300195AC318598082180023137270479C
:4009400070B50D4DC3001A1A9200AA1894688A00511849006418181A80002818067E012305E0201C311C2A1CFFF7DCFF2B1C5D1E002BF6D170BDC046901C000038B5051C39
:40098000C3001B1A9B00064AD318DB8A04E0281C211CFFF7D5FF231C5C1E002BF7D138BD901C000010B50C2303E0201CFFF7E6FF231C5C1E002BF8D110BDC0469840031C23
:4009C000534380204000801A41435818000A7047F0B583B0071C0E1C019201233BE06300985BF3185988884205D3431A321900251572012201E00B1A0022002A11D17D79B6
:400A00009D420ED233191B7A3A7A934205D3301C0199221CFFF786FF1CE032190133137218E03D799D4204D27D799D4212D9002A10D16B461B79062B0CD0090235192B7999
:400A4000194301220823FFF7B9FF020A6300F3185A802871231C5C1E002BC0D1002003B0F0BDC046024B9B68802018407047C0466401002010B50F4B9B68DB030FD40B2896
:400A80000FD8430902339B000A4AD3185A681F230340DA40131CDB0705D4012404E0112402E0012400E00024002C01D100F0E6FB201C10BD6401002008B5054B9B68DB0315
:400AC00003D400F059FB002000E0112008BDC0466401002010B50F4B9B681B0618D400240120404211E0201CFFF7C4FF00280BD10A2C03D80122084B1A7002E00022064B14
:400B00001A70FFF7D9FF04E001340B2CEBD900E0112010BD640100206001002010B5174A53780133DBB253705078C0B2FFF7A2FF041E09D1114B5B780B2B02D100220F4B6F
:400B40001A70FFF7B9FF15E00C4B5B780B2B0AD10B4A7533916899430B021B0A040623439360002406E006498B681B021B0A020613438B60002CD2D110BDC04660010020AC
:400B800064010020074A084B1A6001380002074B1860054B1B68002BFBDB054A024B1A607047C04640000040000001400003014040FF008008B5031E0B2B01D8002000E035
:400BC0000120002803D1181C3C2100F043FC08BD38B50024002504E0201CFFF7EBFF054301340B2CF8D9281C38BDC04670B5002516E0EB005B1B9B000B4A9E58002406E0C8
:400C0000E000001B8000301800F006FB0134EB005B1B9B00044AD3189B7DA342F0D801350B2DE6D970BDC046901C00002323014AD05C7047640100200203121A01238B40AC
:400C4000191C01398A4205D30302181A814203D9052002E0062000E00020C0B27047C04670B50E1CFFF7E2FF051C3188002200F089F9041C9F2D08D9FF235B00984204D99A
:400C80002C4900F097FF00291FD09F2D07D9FE2C05D9201CFF2100F08DFF002917D09F2D07D97E2C05D9201C7F2100F083FF00290FD09F2D0FD93E2C0FD9201C3F2100F069
:400CC00079FF00290BD000240AE0042408E0032406E0022404E0002402E0002400E00124002C04D13188281CFFF7A6FF041C631EDBB2032B01D8102000E00020002C10D00A
:400D0000002810D064235843291C00F0CDFE002301E0013340000928FBD90A2804D9013B02E0002300E00023DBB21B012343F37270BDC046FF01000010B5002409E0E3005D
:400D40001B1B9B00044AD3185968201CFFF788FF01340B2CF3D910BD901C000008B5FFF7EBFF00F05DF8002008BDC046034970230A689A43503B13430B6070478C00002094
:400D8000034A044B1A60C1225204034B1A60704700008301C0010B40C4010B40064A136806490B431360064A064B1A60C1225204054B1A607047C046A8020B400100001009
:400DC00000008301C0010B40C4010B4070B50D1C161C04880123A3401C1C013CA00000194000642100F060FE01302B18A34200D9231C854201D3281A00E00020864203D313
:400E00009E4203D9062002E0062000E0002070BD01390843014B18607047C04600020B4010B5FFF7E3FE0024294B1C60294B1C601022294B1A60294B1C60294B1C60294B34
:400E40001C60294B1C60294A1460294B1C6029490868294B0340C020C00003430B6027490B688020400103430B600121244B196024490B68244803430B6080235B0423495B
:400E80000B602348234908601360234A234B1A60FFF776FF2223224AD05CFFF773FEFFF765FF204B1B68204A1343204A1360242000F0F6FC0F221E4B1A601E4B1C60053ACE
:400EC0001D4B1A60C02212031C4B1A6010BDC046F4000B40B4020B40C0020B4020030B4084010B4088020B4080020B4084020B4080010B4000040240FFF0FFFF94020B4087
:400F0000A0020B40A8020B4001000010A4020B404112000088010B400000030190020B40640100208C0000200010008000000B4000030B40F0010B4010030B4004020B4080
:400F400038B5041C00F0B5FC0A490B687F25AB43094A1278A418A47A23430B6007490B68AB43074C2468A218527A13430B6000F0A4FC38BDC0010B40C01F0000C4010B408C
:400F80009C02002038B5041C151C01238B40181C0138002C02D0211C00F086FD2223054AD35C5C43053D012D02D8A02C00D8800838BDC0466401002008B50C4B1A78D3005A
:400FC0009B1A9B000A4AD3185B6823220949895CD87A431F012B04D8000480239B04184300E00004FFF714FF08BDC04661010020901C00006401002008B5031C23220549EC
:40100000885C1988DA7AFFF7BDFF0004000C024B186008BD6401002014030B4010B50A2000F01CFB0124314B1C600C2000F038FC2F4A304B1A6000222F4B1A6006322F4B0B
:401040001A602F4B1C60802252042E4B1A602E4B1C60832252002D4B1A60033AFF3A2C4B1A60013A2B4B1A60F02300E0013B274A1268520701D4002BF8D1002B02D1082241
:40108000244B1A6000241B4B1C601B4B1C60832252001E4B1A600A2000F0EAFA0A2000F0D3FA164B1C60164B1C60164B1C605022154B1A604F3A184B1A600C4B1C60174A23
:4010C0001368802149040B4313600222104B1A60F02300E0013B124A1268520701D0002BF8D1104A0B4B1A6010BDC04680010B4001010100B0020B40B4020B4088020B400B
:4011000080020B4084020B40F0010B40F0000B40F8000B4040030B408C010B4000020B4000000B400103000008B5044A044B91680B439360FFF772FF08BDC046640100200A
:401140008000010070B5041C857E067E00F0B1FB23681B680F22B24093431A1C0423B3401343666832680721A9408A4332602268136000F0A2FB70BD70B5174E3278174DB2
:40118000D3009B1A9B00EB185868154C002323703278D3009B1A9B00EB189968227893009B185B00CB180F4A1360FFF7C9FE3278D3009B1A9B0058592178CA00531A9B00D1
:4011C000C018094B1860FFF7BDFF084800F01AFAFFF7AAFF70BDC04661010020901C0000620100209C020020980200203919000008B5C300181A8000054BC058CB00591A20
:4012000089004018034B1860FFF79CFF08BDC046901C00009802002038B5041C007EA57E21680B680F22824093430B6000F041FB61680B680722AA4093431A1C0623AB40CC
:4012400013430B6000F039FBA1680B68607E0122824093430B6038BD08B5064B1B78012B06D1054B1868FFF7D7FF0022014B1A7008BDC046630100209802002070B5041C8E
:40128000104DC3001B1A9B00EB185E68FFF7E4FFE4B20D490C700A78D3009B1A9B005A590A4B1A600A4A7F2390689843031C906009780B439360301CFFF79EFEFFF77CFE25
:4012C00070BDC046901C000061010020980200206401002038B5C3001B1A9B00124AD3185D68C9B2114C21709968227893009B185B00CB180E4A1360FFF7C0FF281CFFF780
:401300001FFE20780B4AC300181A800013689C4660441060FFF716FF0122074B1A70074800F070F938BDC046901C0000620100209C0200209802002063010020C11800000C
:40134000074B1A687F210A40064802431A60064A13680B40802109040B4313607047C046C0010B4000008301C4010B40F0B5474680B482B0071C0E1C90462E4A1178CB0039
:401380005B1A9B002C49CB185B680193402333701078C0B2294B1978C9B2FFF79BFFFFF7CFFF4025FFF7C0FE254A00E0013A254B1B7A5BB2002B01DA002AF7D1224B1B68FD
:4013C0001C88BC4202D23378AB4333706D0833782B4333700198FFF7B3FD002DE2D1154B1A78D3009B1A9B00134A9858134B1978CA00531A9B00C018144B1860FFF70CFF18
:401400000022134B1A70FFF7C9FC0198391C221CFFF7DCFC43461A7833789A4201D242461370094B1B6832785A7202B004BC9046F0BDC04661010020901C00006201002074
:4014400066660000640100209C0200209802002063010020F0B54F4680B484B0051C8946C3001B1A9B00384AD3185F68012303AA137038888340181C01384843642100F082
:4014800013FB0190EAB2314B1A70314800F0BAF83C1C0A3400222F4B1A7000260AE00198211C03AAFFF762FF06432A4A13780133DBB21370EB005B1B9B00234AD318254ADB
:4014C00012785B7E9342EAD803AB1B7801335B08BB7200221F4B1A7023E0EB005B1B9B00194AD3189A681B4B1B789C00E41864001419194B1C60637AB87A83420AD31B1AA0
:40150000D8B260724B4658436330642100F0CCFA607201E0002363720E4A13780133DBB21370EB005B1B9B00074AD318094A12785B7E9342D1D80022064B1A70301C04B01A
:4015400004BC9146F0BDC046901C000061010020C1180000620100209C02002004490A68F7231A40C000EF3B184010430860704700010440024B18680007C00F7047C0464D
:401580000401044004490A68FB231A408000F73B184010430860704700010440031C04490868FE2202400120184010430860704700020440014B98667047C0460000002054
:4015C00010B5041C00F075F9044A1168044B0B40A4051C43146000F070F910BD08E400E0FFFF3FFF8022D200014B1A607047C04600E100E08022D200014B1A607047C046EE
:4016000080E100E010B5041CFFF7F4FF201CFFF7D1FF0320FFF7D4FFFFF7E4FF10BDC046024A1168024B0B401360704700000740FFFFFFBF034B18688023DB05184000D0FE
:4016400001207047000007401F2318401E3B8340181C014B1860704700E100E01F2318401E3B8340181C014B1860704780E100E01F2318401E3B8340181C014B186070471A
:4016800080E200E001BE704710B5041C06E0084B586800F005F9074B9C46644480231B029C42F4D8024B9868604300F0F9F810BD900000200080FFFF30B583B000F0DCF8B8
:4016C000002848D000F0F5F8041C244B1B6807221A409200131C1833214A12681207920FD3401A1C1F4B19681F4B19401F4B53438020C00184466344DB0B013B5B055B0DDA
:401700000B43A02149031943192A02D8184A13430BE0184BD31818781A3A174B9B5CC318FF2B00D9FF239B050B430E4A1360134D2B680193302000F08DF9114A136880212A
:40174000C9050B4313601420FFF79EFF019B2B60201C00F0B2F803B030BDC046080F0340280003400800074000F800C040420F000000D43FCDF1FF0FC41F000030001040D1
:4017800000000740F0B583B0041E182C0BD01C2809D0202807D0242805D0282803D02C2801D0302849D100F084F80190FFF742FF002803D0FFF734FF012600E00026214AC2
:4017C000136807218B4313601F4BE3181B78DBB21E4A13601E4A13688B4313601D4803687F229343191C1C4BE3181B7813400B430360322000F054F8182C16D9114F3B6848
:401800000725AB431A1C231C1C3B9B082B4013433B60322000F044F83A68AA43231C183B9B082C1C1C4014433C60012E01D1FFF743FF019800F041F802E00020FFF722FFD6
:4018400003B0F0BD080F0340CDF1FF0F0C0F0340100F0340180F0340B4F1FF0F08B500F028F8044A136804218B43136030BF00F024F808BD10ED00E0034B1B68002B01DA95
:40188000012000E00020704700000740014A024B1A6070476588EDAC38000340000000000230800803D001300238FCD1C046C0467047EFF3108072B6704780F310887047A4
:4018C00083225200144B1A60144B1A78D3009B1A9B00134AD3185B68124A12681204120C198801238B40013B9A4206D20E4B19680E4B1B785B00CA5205E00B4A11680B4A2A
:40190000127852008B520A4BDA880132DA80094A99680A409A607047F0000B4061010020901C0000D0000B409C020020C01F0000640100207FFFFEFF38B53C4B19783C4CAD
:40194000CA00521A920010593A4A1578E9004A1B9200801883214900374A11601B78DA00D31A9B00E3185B68344A12681204120C198801238B40013B9A4206D2304B196873
:40198000304B1B785B00CA5205E02D4A11682D4A127852008B52FFF73FFC244B18782449C200121A92008A1850681B78DA00D31A9B00CB189B7D1F4A1278013B93421DD93C
:4019C0001C4C23780133DBB22370184D2A78D3009B1A9B00CB189968227893009B185B00CB18174A1360FFF7ABFA2878C0B22178C9B2FFF7FDFBFFF711FB15E000220D4B70
:401A00001A70114A114B91680B409360104A1278012A02D1FFF782F806E00B4A80218B439360D3880133D38038BDC04661010020901C000062010020F0000B40D0000B405B
:401A40009C020020C01F000064010020FFFFFEFF6001002038B5041CFFF72BFF051C102C05D8104A136803218B43136016E0202C07D80C490B6803229343023A13430B6046
:401A80000CE0302C07D807490B6803229343013A13430B6002E00020FFF7F4FD281CFFF70CFF38BD30001040002243088B4274D303098B425FD3030A8B4244D3030B8B424A
:401AC00028D3030C8B420DD3FF22090212BA030C8B4202D31212090265D0030B8B4219D300E0090AC30B8B4201D3CB03C01A5241830B8B4201D38B03C01A5241430B8B4279
:401B000001D34B03C01A5241030B8B4201D30B03C01A5241C30A8B4201D3CB02C01A5241830A8B4201D38B02C01A5241430A8B4201D34B02C01A5241030A8B4201D30B02B9
:401B4000C01A5241CDD2C3098B4201D3CB01C01A524183098B4201D38B01C01A524143098B4201D34B01C01A524103098B4201D30B01C01A5241C3088B4201D3CB00C01AB0
:401B8000524183088B4201D38B00C01A524143088B4201D34B00C01A5241411A00D20146524110467047FFE701B5002000F00CF802BDC0460029F7D003B5FFF775FF0EBC65
:401BC0004243891A1847C0467047C046014B18687047C046040100200E4B70B500251E1C0D4CE41AA410A54204D0AB00F35898470135F8E700F0F4F9084B00251E1C084C7D
:401C0000E41AA410A54204D0AB00F35898470135F8E770BDEC1F0000EC1F0000EC1F0000F41F0000002310B5934203D0CC5CC4540133F9E710BD031C8218934202D0197052
:401C40000133FAE770470000000000005475C52A0062003F0000000000000001010500509E4B0002162B1200628080000A32C3071600000000003B001747800301451800B2
:401C8000010F0000202020202020202020202020701E00008801002018020020000000005801002000000100010100008C1E0000940100202202002000000000540100208F
:401CC0000000010001010000A81E0000A00100202C02002000000000500100200000010001010000C41E0000AC01002036020020000000004C010020000001000101000021
:401D0000E01E0000B80100204002002000000000480100200000010001010000FC1E0000C40100204A02002000000000440100200000010001010000181F0000D001002003
:401D40005402002000000000400100200000010001010000341F0000DC0100205E020020000000003C0100200000010001010000501F0000E8010020680200200000000057
:401D80003801002000000100010100006C1F0000F40100207202002000000000340100200000010001010000881F0000000200207C02002000000000300100200000010082
:401DC00001010000A41F00000C02002086020020000000002C01002000000100010100000C0078003C3C0403FF6420000C005C002E2E0703FF6420000C004E00272707036F
:401E0000FF6420000C00440022220603FF6420000C00440022220603FF6420000C00400020200603FF6420000C00910048480403FF6420000C00730043430403FF64200081
:401E40000C00690034340703FF6420000C00460023230603FF6420000C004C0026260603FF6420000C004A0025250603FF642000000002400800044000000440040004405E
:401E80000F000000010000000000000000000240080004400000044004000440F0000000020000000401030000000240080004400000044004000440000F000004000000D1
:401EC000080206000000024008000440000004400400044000F00000080000000C030900000402400804044000040440040404400F00000001000000000000000003024029
:401F0000080304400003044004030440F0000000020000000401030000020240080204400002044004020440000F00000400000008020600000202400802044000020440A9
:401F40000402044000F00000080000000C030900000202400802044000020440040204400000F0002000000014050F00000202400802044000020440040204400000000F7C
:401F8000400000001806120000020240080204400002044004020440000000F0800000001C071500000302400803044000030440040304400F0000000100000000000000B1
:401FC00000000000EEDBC9B9AA9B8E82766B60564D443B332C241D17100A040043000000F8B5C046F8BC08BC9E4670476501000091050000F8B5C046F8BC08BC9E4670473E
:402000003D010000182000008800002080000000980100000000000000000000020000040100000000007017E02E00000C000000001BB700000000000000000000000000EF
:402040000000000000000000000000000000000000000000DC1F00000000000000000000000000000000000000000000000000000000000000000000000000000000000065
:402080000000000000000000000000000000000000000000A4000020000000000000000000000000000000000000000000000000000000000000000000000000000000005C
:4020C00000000000000000000000000000000000000000000000000000000000000000000000000000000000000000000000000000000000000000000000000000000000E0
:40210000000000000000000000000000000000000000000000000000000000000000000000000000000000000000000000000000000000000000000000000000000000009F
:40214000000000000000000000000000000000000000000000000000000000000000000000000000000000000000000000000000000000000000000000000000000000005F
:40218000000000000000000000000000000000000000000000000000000000000000000000000000000000000000000000000000000000000000000000000000000000001F
:0200000490303A
:02000000B34704
:0200000490402A
:1000000000000000000000000000000000000000F0
:0200000490501A
:0C0000000002190911A900011912C4F036
:0200000490600A
:0100000001FE
:00000001FF